{
  "contractName": "NEFAMarketplace",
  "abi": [
    {
      "inputs": [
        {
          "internalType": "address",
          "name": "_nefa_nft_contract_addr",
          "type": "address"
        }
      ],
      "stateMutability": "nonpayable",
      "type": "constructor"
    },
    {
      "anonymous": false,
      "inputs": [
        {
          "indexed": false,
          "internalType": "uint256",
          "name": "",
          "type": "uint256"
        }
      ],
      "name": "NFTListed",
      "type": "event"
    },
    {
      "anonymous": false,
      "inputs": [
        {
          "indexed": true,
          "internalType": "address",
          "name": "previousOwner",
          "type": "address"
        },
        {
          "indexed": true,
          "internalType": "address",
          "name": "newOwner",
          "type": "address"
        }
      ],
      "name": "OwnershipTransferred",
      "type": "event"
    },
    {
      "inputs": [],
      "name": "owner",
      "outputs": [
        {
          "internalType": "address",
          "name": "",
          "type": "address"
        }
      ],
      "stateMutability": "view",
      "type": "function",
      "constant": true
    },
    {
      "inputs": [],
      "name": "renounceOwnership",
      "outputs": [],
      "stateMutability": "nonpayable",
      "type": "function"
    },
    {
      "inputs": [
        {
          "internalType": "address",
          "name": "newOwner",
          "type": "address"
        }
      ],
      "name": "transferOwnership",
      "outputs": [],
      "stateMutability": "nonpayable",
      "type": "function"
    },
    {
      "inputs": [
        {
          "internalType": "address",
          "name": "_from",
          "type": "address"
        },
        {
          "internalType": "uint256",
          "name": "_amount",
          "type": "uint256"
        },
        {
          "internalType": "uint256",
          "name": "_price",
          "type": "uint256"
        },
        {
          "internalType": "uint256",
          "name": "_royalty",
          "type": "uint256"
        },
        {
          "internalType": "string",
          "name": "name",
          "type": "string"
        },
        {
          "internalType": "string",
          "name": "description",
          "type": "string"
        },
        {
          "internalType": "string",
          "name": "uri",
          "type": "string"
        }
      ],
      "name": "mintNFT",
      "outputs": [],
      "stateMutability": "nonpayable",
      "type": "function"
    },
    {
      "inputs": [],
      "name": "fetchAllNFTs",
      "outputs": [
        {
          "components": [
            {
              "internalType": "uint256",
              "name": "nft_id",
              "type": "uint256"
            },
            {
              "internalType": "uint256",
              "name": "nft_price",
              "type": "uint256"
            },
            {
              "internalType": "uint256",
              "name": "royalty",
              "type": "uint256"
            },
            {
              "internalType": "string",
              "name": "name",
              "type": "string"
            },
            {
              "internalType": "string",
              "name": "description",
              "type": "string"
            },
            {
              "internalType": "string",
              "name": "uri",
              "type": "string"
            },
            {
              "internalType": "address[]",
              "name": "owners",
              "type": "address[]"
            }
          ],
          "internalType": "struct NEFAMarketplace.nft[]",
          "name": "",
          "type": "tuple[]"
        }
      ],
      "stateMutability": "view",
      "type": "function",
      "constant": true
    }
  ],
  "bytecode": "0x60806040523480156200001157600080fd5b50604051620015a0380380620015a08339818101604052810190620000379190620002a7565b620000576200004b6200017160201b60201c565b6200017960201b60201c565b80600260006101000a81548173ffffffffffffffffffffffffffffffffffffffff021916908373ffffffffffffffffffffffffffffffffffffffff16021790555033600360006101000a81548173ffffffffffffffffffffffffffffffffffffffff021916908373ffffffffffffffffffffffffffffffffffffffff160217905550600260009054906101000a900473ffffffffffffffffffffffffffffffffffffffff1673ffffffffffffffffffffffffffffffffffffffff1663bdd42821306040518263ffffffff1660e01b8152600401620001369190620002ea565b600060405180830381600087803b1580156200015157600080fd5b505af115801562000166573d6000803e3d6000fd5b505050505062000307565b600033905090565b60008060009054906101000a900473ffffffffffffffffffffffffffffffffffffffff169050816000806101000a81548173ffffffffffffffffffffffffffffffffffffffff021916908373ffffffffffffffffffffffffffffffffffffffff1602179055508173ffffffffffffffffffffffffffffffffffffffff168173ffffffffffffffffffffffffffffffffffffffff167f8be0079c531659141344cd1fd0a4f28419497f9722a3daafe3b4186f6b6457e060405160405180910390a35050565b600080fd5b600073ffffffffffffffffffffffffffffffffffffffff82169050919050565b60006200026f8262000242565b9050919050565b620002818162000262565b81146200028d57600080fd5b50565b600081519050620002a18162000276565b92915050565b600060208284031215620002c057620002bf6200023d565b5b6000620002d08482850162000290565b91505092915050565b620002e48162000262565b82525050565b6000602082019050620003016000830184620002d9565b92915050565b61128980620003176000396000f3fe608060405234801561001057600080fd5b50600436106100575760003560e01c80633f0e317b1461005c5780634d36576d1461007a578063715018a6146100965780638da5cb5b146100a0578063f2fde38b146100be575b600080fd5b6100646100da565b6040516100719190610ccb565b60405180910390f35b610094600480360381019061008f9190610e8e565b61040a565b005b61009e61063d565b005b6100a86106c5565b6040516100b59190610f93565b60405180910390f35b6100d860048036038101906100d39190610fae565b6106ee565b005b606060006100e860016107e6565b67ffffffffffffffff81111561010157610100610d63565b5b60405190808252806020026020018201604052801561013a57816020015b6101276108d6565b81526020019060019003908161011f5790505b50905060005b61014a60016107e6565b81101561040257600560008281526020019081526020016000206040518060e001604052908160008201548152602001600182015481526020016002820154815260200160038201805461019d9061100a565b80601f01602080910402602001604051908101604052809291908181526020018280546101c99061100a565b80156102165780601f106101eb57610100808354040283529160200191610216565b820191906000526020600020905b8154815290600101906020018083116101f957829003601f168201915b5050505050815260200160048201805461022f9061100a565b80601f016020809104026020016040519081016040528092919081815260200182805461025b9061100a565b80156102a85780601f1061027d576101008083540402835291602001916102a8565b820191906000526020600020905b81548152906001019060200180831161028b57829003601f168201915b505050505081526020016005820180546102c19061100a565b80601f01602080910402602001604051908101604052809291908181526020018280546102ed9061100a565b801561033a5780601f1061030f5761010080835404028352916020019161033a565b820191906000526020600020905b81548152906001019060200180831161031d57829003601f168201915b50505050508152602001600682018054806020026020016040519081016040528092919081815260200182805480156103c857602002820191906000526020600020905b8160009054906101000a900473ffffffffffffffffffffffffffffffffffffffff1673ffffffffffffffffffffffffffffffffffffffff168152602001906001019080831161037e575b5050505050815250508282815181106103e4576103e361103c565b5b602002602001018190525080806103fa9061109a565b915050610140565b508091505090565b600061041660016107e6565b905061042260016107f4565b80600560008381526020019081526020016000206000018190555085600560008381526020019081526020016000206001018190555083600560008381526020019081526020016000206003019080519060200190610482929190610913565b50826005600083815260200190815260200160002060040190805190602001906104ad929190610913565b50816005600083815260200190815260200160002060050190805190602001906104d8929190610913565b5084600560008381526020019081526020016000206002018190555060056000828152602001908152602001600020600601889080600181540180825580915050600190039060005260206000200160009091909190916101000a81548173ffffffffffffffffffffffffffffffffffffffff021916908373ffffffffffffffffffffffffffffffffffffffff160217905550600260009054906101000a900473ffffffffffffffffffffffffffffffffffffffff1673ffffffffffffffffffffffffffffffffffffffff1663156e29f689838a6040518463ffffffff1660e01b81526004016105ca939291906110f2565b600060405180830381600087803b1580156105e457600080fd5b505af11580156105f8573d6000803e3d6000fd5b505050507fdb1fd9bae40110b73b6592270632b19e60d204d52ee5cd72c60d076e6bdd342f8160405161062b9190611129565b60405180910390a15050505050505050565b61064561080a565b73ffffffffffffffffffffffffffffffffffffffff166106636106c5565b73ffffffffffffffffffffffffffffffffffffffff16146106b9576040517f08c379a00000000000000000000000000000000000000000000000000000000081526004016106b0906111a1565b60405180910390fd5b6106c36000610812565b565b60008060009054906101000a900473ffffffffffffffffffffffffffffffffffffffff16905090565b6106f661080a565b73ffffffffffffffffffffffffffffffffffffffff166107146106c5565b73ffffffffffffffffffffffffffffffffffffffff161461076a576040517f08c379a0000000000000000000000000000000000000000000000000000000008152600401610761906111a1565b60405180910390fd5b600073ffffffffffffffffffffffffffffffffffffffff168173ffffffffffffffffffffffffffffffffffffffff1614156107da576040517f08c379a00000000000000000000000000000000000000000000000000000000081526004016107d190611233565b60405180910390fd5b6107e381610812565b50565b600081600001549050919050565b6001816000016000828254019250508190555050565b600033905090565b60008060009054906101000a900473ffffffffffffffffffffffffffffffffffffffff169050816000806101000a81548173ffffffffffffffffffffffffffffffffffffffff021916908373ffffffffffffffffffffffffffffffffffffffff1602179055508173ffffffffffffffffffffffffffffffffffffffff168173ffffffffffffffffffffffffffffffffffffffff167f8be0079c531659141344cd1fd0a4f28419497f9722a3daafe3b4186f6b6457e060405160405180910390a35050565b6040518060e00160405280600081526020016000815260200160008152602001606081526020016060815260200160608152602001606081525090565b82805461091f9061100a565b90600052602060002090601f0160209004810192826109415760008555610988565b82601f1061095a57805160ff1916838001178555610988565b82800160010185558215610988579182015b8281111561098757825182559160200191906001019061096c565b5b5090506109959190610999565b5090565b5b808211156109b257600081600090555060010161099a565b5090565b600081519050919050565b600082825260208201905092915050565b6000819050602082019050919050565b6000819050919050565b6109f5816109e2565b82525050565b600081519050919050565b600082825260208201905092915050565b60005b83811015610a35578082015181840152602081019050610a1a565b83811115610a44576000848401525b50505050565b6000601f19601f8301169050919050565b6000610a66826109fb565b610a708185610a06565b9350610a80818560208601610a17565b610a8981610a4a565b840191505092915050565b600081519050919050565b600082825260208201905092915050565b6000819050602082019050919050565b600073ffffffffffffffffffffffffffffffffffffffff82169050919050565b6000610aeb82610ac0565b9050919050565b610afb81610ae0565b82525050565b6000610b0d8383610af2565b60208301905092915050565b6000602082019050919050565b6000610b3182610a94565b610b3b8185610a9f565b9350610b4683610ab0565b8060005b83811015610b77578151610b5e8882610b01565b9750610b6983610b19565b925050600181019050610b4a565b5085935050505092915050565b600060e083016000830151610b9c60008601826109ec565b506020830151610baf60208601826109ec565b506040830151610bc260408601826109ec565b5060608301518482036060860152610bda8282610a5b565b91505060808301518482036080860152610bf48282610a5b565b91505060a083015184820360a0860152610c0e8282610a5b565b91505060c083015184820360c0860152610c288282610b26565b9150508091505092915050565b6000610c418383610b84565b905092915050565b6000602082019050919050565b6000610c61826109b6565b610c6b81856109c1565b935083602082028501610c7d856109d2565b8060005b85811015610cb95784840389528151610c9a8582610c35565b9450610ca583610c49565b925060208a01995050600181019050610c81565b50829750879550505050505092915050565b60006020820190508181036000830152610ce58184610c56565b905092915050565b6000604051905090565b600080fd5b600080fd5b610d0a81610ae0565b8114610d1557600080fd5b50565b600081359050610d2781610d01565b92915050565b610d36816109e2565b8114610d4157600080fd5b50565b600081359050610d5381610d2d565b92915050565b600080fd5b600080fd5b7f4e487b7100000000000000000000000000000000000000000000000000000000600052604160045260246000fd5b610d9b82610a4a565b810181811067ffffffffffffffff82111715610dba57610db9610d63565b5b80604052505050565b6000610dcd610ced565b9050610dd98282610d92565b919050565b600067ffffffffffffffff821115610df957610df8610d63565b5b610e0282610a4a565b9050602081019050919050565b82818337600083830152505050565b6000610e31610e2c84610dde565b610dc3565b905082815260208101848484011115610e4d57610e4c610d5e565b5b610e58848285610e0f565b509392505050565b600082601f830112610e7557610e74610d59565b5b8135610e85848260208601610e1e565b91505092915050565b600080600080600080600060e0888a031215610ead57610eac610cf7565b5b6000610ebb8a828b01610d18565b9750506020610ecc8a828b01610d44565b9650506040610edd8a828b01610d44565b9550506060610eee8a828b01610d44565b945050608088013567ffffffffffffffff811115610f0f57610f0e610cfc565b5b610f1b8a828b01610e60565b93505060a088013567ffffffffffffffff811115610f3c57610f3b610cfc565b5b610f488a828b01610e60565b92505060c088013567ffffffffffffffff811115610f6957610f68610cfc565b5b610f758a828b01610e60565b91505092959891949750929550565b610f8d81610ae0565b82525050565b6000602082019050610fa86000830184610f84565b92915050565b600060208284031215610fc457610fc3610cf7565b5b6000610fd284828501610d18565b91505092915050565b7f4e487b7100000000000000000000000000000000000000000000000000000000600052602260045260246000fd5b6000600282049050600182168061102257607f821691505b6020821081141561103657611035610fdb565b5b50919050565b7f4e487b7100000000000000000000000000000000000000000000000000000000600052603260045260246000fd5b7f4e487b7100000000000000000000000000000000000000000000000000000000600052601160045260246000fd5b60006110a5826109e2565b91507fffffffffffffffffffffffffffffffffffffffffffffffffffffffffffffffff8214156110d8576110d761106b565b5b600182019050919050565b6110ec816109e2565b82525050565b60006060820190506111076000830186610f84565b61111460208301856110e3565b61112160408301846110e3565b949350505050565b600060208201905061113e60008301846110e3565b92915050565b600082825260208201905092915050565b7f4f776e61626c653a2063616c6c6572206973206e6f7420746865206f776e6572600082015250565b600061118b602083611144565b915061119682611155565b602082019050919050565b600060208201905081810360008301526111ba8161117e565b9050919050565b7f4f776e61626c653a206e6577206f776e657220697320746865207a65726f206160008201527f6464726573730000000000000000000000000000000000000000000000000000602082015250565b600061121d602683611144565b9150611228826111c1565b604082019050919050565b6000602082019050818103600083015261124c81611210565b905091905056fea2646970667358221220b0f8eff799c04dfd5a51ed81040c19440b5da84dd55f4f97d43162d62c8512be64736f6c634300080b0033",
  "immutableReferences": {},
  "source": "// SPDX-License-Identifier: MIT\r\npragma solidity >=0.4.22 <0.9.0;\r\n\r\nimport \"@openzeppelin/contracts/utils/Counters.sol\";\r\nimport \"@openzeppelin/contracts/token/ERC20/IERC20.sol\";\r\nimport \"@openzeppelin/contracts/access/Ownable.sol\";\r\n\r\nimport \"./NEFANFT.sol\" ;\r\n\r\ncontract NEFAMarketplace is Ownable {\r\n    using Counters for Counters.Counter ;\r\n    Counters.Counter nft_counter ;\r\n\r\n    NEFANFT private nefa_nft_contract ;\r\n\r\n    address marketplace_owner ;\r\n\r\n    address[] private units ;\r\n   \r\n    struct nft {\r\n        uint256 nft_id;\r\n        uint256 nft_price ;\r\n        uint256 royalty;\r\n        string name ;\r\n        string description ;\r\n        string uri ;\r\n        address[] owners;\r\n    }\r\n\r\n    mapping(uint256 => nft) private nfts ;\r\n\r\n    event NFTListed(uint256) ;\r\n\r\n    constructor ( address _nefa_nft_contract_addr ) {\r\n        nefa_nft_contract = NEFANFT(_nefa_nft_contract_addr) ;\r\n\r\n        marketplace_owner = msg.sender ;\r\n\r\n        nefa_nft_contract.setNefaMarketplaceToNFT(address(this));\r\n    }\r\n\r\n    function mintNFT(\r\n        address _from,\r\n        uint256 _amount,\r\n        uint256 _price,\r\n        uint256 _royalty,\r\n        string memory name,\r\n        string memory description,\r\n        string memory uri\r\n    ) \r\n    public {\r\n        uint256 new_nft_id = nft_counter.current();\r\n\r\n        nft_counter.increment() ;\r\n\r\n        nfts[new_nft_id].nft_id = new_nft_id ;\r\n        nfts[new_nft_id].nft_price = _price ;\r\n        nfts[new_nft_id].name = name ;\r\n        nfts[new_nft_id].description = description ;\r\n        nfts[new_nft_id].uri = uri ;\r\n        nfts[new_nft_id].royalty = _royalty;\r\n        nfts[new_nft_id].owners.push(_from) ;\r\n\r\n        nefa_nft_contract.mint(_from, new_nft_id , _amount);\r\n\r\n        emit NFTListed(new_nft_id);\r\n    }\r\n\r\n    function fetchAllNFTs() external view returns(nft[] memory) {\r\n        nft[] memory _nfts = new nft[](nft_counter.current()) ;\r\n\r\n        for(uint256 i = 0 ; i < nft_counter.current(); i++) {\r\n            _nfts[i] = nfts[i] ;\r\n        }\r\n        \r\n        return _nfts ;\r\n    }\r\n}\r\n",
  "sourcePath": "F:\\GithubSrc\\Truffle-Ganache-NFT-Martkeplace\\nft-truffle-contract\\contracts\\NEFAMarketplace.sol",
  "compiler": {
    "name": "solc",
    "version": "0.8.11+commit.d7f03943.Emscripten.clang"
  },
  "schemaVersion": "3.4.4",
  "updatedAt": "2023-01-18T11:05:20.695Z",
  "networkType": "ethereum",
  "devdoc": {
    "kind": "dev",
    "methods": {
      "owner()": {
        "details": "Returns the address of the current owner."
      },
      "renounceOwnership()": {
        "details": "Leaves the contract without owner. It will not be possible to call `onlyOwner` functions anymore. Can only be called by the current owner. NOTE: Renouncing ownership will leave the contract without an owner, thereby removing any functionality that is only available to the owner."
      },
      "transferOwnership(address)": {
        "details": "Transfers ownership of the contract to a new account (`newOwner`). Can only be called by the current owner."
      }
    },
    "version": 1
  },
  "userdoc": {
    "kind": "user",
    "methods": {},
    "version": 1
  }
}